:100000000EC028C027C026C025C099C023C022C06A
:1000100021C020C01FC01EC01DC01CC01BC0112499
:100020001FBECFE5D2E0DEBFCDBF10E0A0E6B0E05E
:10003000E6ECF1E002C005900D92A636B107D9F7C3
:1000400010E0A6E6B0E001C01D92AE36B107E1F7C0
:100050001BD0B7C0D5CFB89AB99ABA9A80E886BDF6
:1000600016BC10926B001092680010926C001092F7
:10007000690010926D0010926A0082E088BF89BF0B
:1000800081E083BF78940895CF93DF93E4DF44E069
:1000900050E022E030E0C1E0D0E0A0916600B091F5
:1000A0006700AE3FB10524F4A230B10524F005C0CD
:1000B000CFEFDFEF02C0C1E0D0E0E0916000F0914F
:1000C0006100EC3FF10524F4E430F10524F005C0B3
:1000D0002DEF3FEF02C023E030E0609162007091AD
:1000E00063006A3F710524F46630710524F005C091
:1000F0004BEF5FEF02C045E050E0AC0FBD1FB09387
:100100006700A0936600E20FF31FF0936100E09395
:100110006000640F751F7093630060936200A0938A
:100120006800E093690060936A008FEF91EEA4E0AD
:1001300081509040A040E1F700C00000AECF1F9278
:100140000F920FB60F9211248F939F9380916500A9
:1001500088BB809164008F5F80936400882379F46A
:100160009091680090936B009091690090936C005F
:1001700090916A0090936D0097E090936500909144
:100180006B00981729F4909165009E7F909365000D
:1001900090916C00981729F4909165009D7F909341
:1001A000650090916D00981729F4809165008B7F10
:1001B000809365009F918F910F900FBE0F901F90BD
:0601C0001895F894FFCF32
:0601C6005500AA00FF072E
:00000001FF
